:020000040800F2
:10000000C04A002071020008790200087B02000843
:100010007D0200087F020008810200080000000045
:100020000000000000000000000000008302000843
:100030008502000800000000870200081D4000083B
:100040008B0200088B0200088B0200088B0200085C
:100050008B0200088B0200088B0200088B0200084C
:100060008B0200088B0200088B0200088B0200083C
:100070008B0200088B0200088B0200088B0200082C
:100080008B0200088B0200088B0200088B0200081C
:100090008B0200088B0200088B0200088B0200080C
:1000A0008B0200088B0200088B0200088B020008FC
:1000B0008B0200081B4A00086B4B00088B020008EB
:1000C0008B0200088B0200088B0200088B020008DC
:1000D0008B020008BB4C00086F4D0008B54D0008AE
:1000E0008B0200088B0200088B0200088B020008BC
:1000F0008B0200088B0200088B0200088B020008AC
:100100008B0200088B0200088B0200088B0200089B
:100110008B0200088B0200088B0200088B0200088B
:100120008B0200088B0200088B0200088B0200087B
:100130008B0200088B0200088B0200088B0200086B
:100140008B0200088B0200088B0200088B0200085B
:100150008B0200088B0200088B0200088B0200084B
:100160008B0200088B0200088B0200088B0200083B
:100170008B0200088B0200088B0200088B0200082B
:100180008B0200088B02000800F002F800F060F813
:100190000AA090E8000C82448344AAF10107DA45E2
:1001A00001D100F055F8AFF2090EBAE80F0013F0D4
:1001B000010F18BFFB1A43F001031847FC0D0100A3
:1001C0001C0E01000A444FF0000C10F8013B13F024
:1001D000070408BF10F8014B1D1108BF10F8015BA0
:1001E000641E05D010F8016B641E01F8016BF9D193
:1001F00013F0080F1EBF10F8014BAD1C0C1B09D1EA
:100200006D1E58BF01F801CBFAD505E014F8016B5B
:1002100001F8016B6D1EF9D59142D6D370470000ED
:100220000023002400250026103A28BF78C1FBD8FF
:10023000520728BF30C148BF0B6070471FB50FF091
:100240009AFE9DE803000DF099FA1FBD10B510BD90
:100250000DF000FB1146FFF7F1FF02F023F90DF05E
:100260001EFB03B4FFF7F2FF03BC0DF04BFB0000D5
:100270000948804709480047FEE7FEE7FEE7FEE73A
:10028000FEE7FEE7FEE7FEE7FEE7FEE70448054976
:10029000054A064B704700000B260008890100083C
:1002A000C0440020C04A0020C0460020C0460020B4
:1002B00033490143334A1160704770B50021002370
:1002C0000F22C47824B32F4C246804F4E064C4F5EE
:1002D000E064C4F30721C1F10404E3B20A414478A5
:1002E0009C40E1B28478144021430C07210E264C37
:1002F00005786155047804F01F050124AC400578A9
:100300006D114FF0E02606EB8505C5F8004109E0C8
:10031000047804F01F040125A5401C4C06787611D2
:1003200044F8265070BD1A4A0A400243154B1B1F61
:100330001A60704739B1134A121D12680243114BFB
:100340001B1D1A6006E00F4A121D126882430D4BF6
:100350001B1D1A607047042808D14FF0E02109697D
:1003600041F004014FF0E022116107E04FF0E0217D
:10037000096921F004014FF0E0221161704700008B
:100380000000FA050CED00E000E400E080E100E090
:1003900080FFFF1F016821F0010101600021016061
:1003A00041608160C160016121214161DA49884277
:1003B00004D13D21D84A103A91608CE0D6491831D9
:1003C000884205D14FF47461D34A103A916082E0BB
:1003D000D1493031884205D14FF47411CE4A103AD8
:1003E000916078E0CC494831884205D14FF0746182
:1003F000C94A103A91606EE0C7496031884204D121
:10040000C649C54A103AD16065E0C349783188428F
:1004100004D1C349C04A103AD1605CE0BE49903172
:10042000884204D1BF49BC4A103AD16053E0BA496E
:10043000A831884205D14FF03D51B74A103AD160FA
:1004400049E0B949884204D13D21B74A083A1160D0
:1004500041E0B5491831884205D14FF47461B24A80
:10046000083A116037E0B0493031884205D14FF485
:100470007411AD4A083A11602DE0AB494831884209
:1004800005D14FF07461A84A083A116023E0A649EB
:100490006031884204D1A149A34A121F11601AE0B9
:1004A000A1497831884204D19D499F4A121F1160A9
:1004B00011E09D499031884204D19A499A4A121F0D
:1004C000116008E09849A831884204D14FF03D51AD
:1004D000954A121F1160704710B500220268934BB5
:1004E0001A40CC680B6823434C6923438C6923432F
:1004F000CC6923430C6A23434C6A23438C6A23430D
:100500004C6B23438C6B23431A430260426922F0F5
:100510000702D1E90B3423431A4342610B6943605C
:100520004B6883608B68C36010BD0021016041602F
:100530008160C160016141618161C16101624162AB
:100540008162C162016341638163704721B10268C6
:1005500042F00102026003E0026822F00102026040
:10056000704721B1026842F40042026003E0026871
:1005700022F400420260704721B1026842F020027A
:10058000026003E0026822F02002026070474160CE
:1005900070470146486880B2704722B1036843F44F
:1005A0000023036003E0036823F400230360016178
:1005B000704721B1026842F48022026003E00268C1
:1005C00022F48022026070470AB1016100E0C1603C
:1005D0007047014600200A6812F4002F01D0012064
:1005E00000E000207047014600200A6812F0010F69
:1005F00001D0012000E000207047014600204A6938
:1006000002F03800704730B503460A460020002447
:10061000454DAB4202D24049103901E04249103900
:1006200012F0005F01D04C6800E00C68404D2C4097
:10063000144201D0012000E0002030BD02463A4BB8
:100640009A4202D23448103801E03748103811F08D
:10065000005F03D0364B0B40C36002E0344B0B40CD
:100660008360704710B511F0800F09D022B1436943
:1006700043F08003436103E0436923F08003436157
:1006800080290BD02AB1036801F01E0423430360C4
:1006900004E0036801F01E04A343036010BD70B5BD
:1006A00002460020002400251F4EB24202D21A4BFF
:1006B000103B01E01C4B103B1E4E314206D01E2663
:1006C00006EAD124166806EA040502E0566906F037
:1006D000800511F0005F01D05C6800E01C68144EDA
:1006E00034400C4202D00DB1012000E0002070BD6A
:1006F00002460D4B9A4202D20748103801E00A48E0
:10070000103811F0005F03D0094B0B40C36002E0CA
:10071000074B0B4083607047106002403D00002093
:10072000400F002000003D20106402403F801CF07C
:100730007D0F7D0F3C0F3C0FFE4A1070704730B1AB
:10074000FC49096841F48071FA4A116005E0F949F1
:10075000096821F48071F74A1160704730B1F5499A
:10076000096841F40071F34A116005E0F149096834
:1007700021F40071EF4A1160704730B1ED4909680A
:1007800041F48061EB4A116005E0EA49096821F40F
:100790008061E84A11607047E648006840F40060F4
:1007A000E44908607047E348006840F48050E1493C
:1007B00008607047DF481030006810F0004F05D027
:1007C000DD48DC49091D0860DC4808607047D948ED
:1007D0001030006840F00040D64910310860704782
:1007E0000820D4490C31096801F48031B1F5803F0B
:1007F00001D1012018E0CF490C31096811F0100F28
:1008000001D0052010E0CB490C31096811F0EF0F41
:1008100001D0062008E0C7490C31096811F0020F29
:1008200001D0072000E00820704708B5082000909C
:10083000FFF7D6FF009002E0FFF7D2FF00909DF88F
:1008400000000128F8D09DF8000008BD70B50446EE
:100850000A460026082502B909E0012A01D116023C
:1008600005E0022A01D1160201E04FF44076FFF7BD
:10087000DCFF0546082D2DD1AE481030006820F46D
:100880004070AC4910310860084600683043086089
:100890000846006820F0F80008600846006844F048
:1008A00002010843A349103108600846006840F47B
:1008B00080300860FFF7B9FF05469E481030006899
:1008C00020F002009B49103108600846006820F0C3
:1008D000F8000860284670BD30B50246002508249F
:1008E000FFF7A3FF044602B909E0012A01D115026E
:1008F00005E0022A01D1150201E04FF44075082CF1
:1009000020D18C481030006820F4407089491031A3
:10091000086008460068284308600846006840F000
:10092000040008600846006840F480300860FFF763
:100930007CFF04467F481030006820F004007D49A9
:1009400010310860204630BD70B5064614461D467D
:100950004FF00802FFF769FF0246082A1ED17548CA
:100960001030006820F44070724910310860084669
:10097000006840F4407008600846006840F00100DC
:10098000086034607560FFF750FF02466948103018
:10099000006820F00100674910310860104670BD02
:1009A00030B502460C460825FFF73FFF0546082DE7
:1009B0001DD160481030006820F440705D4910314E
:1009C00008600846006840F4007008600846006847
:1009D00040F0010008601460FFF727FF0546554806
:1009E0001030006820F0010052491031086028469C
:1009F00030BD30B502460C460825FFF716FF054608
:100A0000082D1DD14B481030006820F44070494932
:100A1000103108600846006840F48070086008469D
:100A2000006840F0010008601480FFF7FEFE0546F4
:100A300040481030006820F001003E491031086045
:100A4000284630BD30B502460C460825FFF7EDFEBE
:100A50000546082D1BD137481030006820F440703F
:100A6000344910310860084600680860084600688C
:100A700040F0010008601470FFF7D7FE05462D48CE
:100A80001030006820F001002A4910310860284623
:100A900030BD28481430006810F0010F05D02848F8
:100AA00024490831086027480860704721481430FD
:100AB000006840F001001F4914310860704730B5EC
:100AC00002460C460825FFF7B0FE0546082D10D15A
:100AD0003CB11848163000889043164916310880FA
:100AE00007E014481630008891B2084311491631C6
:100AF000088030BD10B502460824FFF796FE044674
:100B0000082C02D10B481530027010BDF0B5044618
:100B10000D46FF260827FFF788FE0746082F16D147
:100B200004481430007800F00F0645EA0600104330
:100B3000204309E0003C024023016745AB89EFCD2B
:100B40003B2A19087F6E5D4C2C4914310870F0BDAA
:100B50002A491431097821F00C01284A1432117005
:100B60001146097801431170704700B508222348E7
:100B70001430007840F00200204914310870FFF76B
:100B800054FE0246104600BD1C4814300068C0F3F5
:100B900047107047194816300088704700201749E1
:100BA00015310978AA2901D0012000E00020704702
:100BB00012481430007800F00C00704739B10F4A29
:100BC0001032126802430D4B10331A6006E00B4AD4
:100BD000103212688243094B10331A607047014685
:100BE0000020064A0C3212680A4201D0012000E0BF
:100BF0000020704701490C3108607047003C0240FA
:100C000010B504468C48844208D10121084600F002
:100C100000FB0021012000F0FCFA5EE087488442DE
:100C200008D10121022000F0F4FA0021022000F096
:100C3000F0FA52E08248844208D10121042000F0F9
:100C4000E8FA0021042000F0E4FA46E07D488442FE
:100C500008D10121082000F0DCFA0021082000F072
:100C6000D8FA3AE07848844208D10121102000F0F7
:100C7000D0FA0021102000F0CCFA2EE07348844214
:100C800008D10121202000F0C4FA0021202000F02A
:100C9000C0FA22E06E48844208D10121402000F0D1
:100CA000B8FA0021402000F0B4FA16E06948844206
:100CB00008D10121802000F0ACFA0021802000F052
:100CC000A8FA0AE06448844207D10121801500F0A7
:100CD000A0FA0021A01500F09CFA10BDF0B50A465C
:100CE00000210023002400BF3DE0012505FA01F3A7
:100CF000156805EA03049C4234D105684F000326B9
:100D0000BE40B543056015794E00B54006683543D1
:100D100005601579012D02D01579022D16D185684F
:100D20004F000326BE40B543856055794E00B5405F
:100D3000866835438560456801268E40B543456029
:100D4000456896798E40B6B235434560C5684F0018
:100D50000326BE40B543C560D5794E00B540C66890
:100D60003543C560491C1029BFD3F0BD4FF6FF7154
:100D700001600021017141718171C171704708B535
:100D80004FF480320092009A0A430092009AC261A6
:100D9000C161009AC261C2690092C269009208BD35
:100DA0000246002013690B4201D0012000E0002020
:100DB00070470146086980B27047024600205369B7
:100DC0000B4201D0012000E0002070470146486935
:100DD00080B2704701837047418370470AB1018335
:100DE00000E0418370474161704742694A40426177
:100DF0007047F0B5002300244D07ED0E02FA05F30D
:100E0000CE1000F1200555F826504E07F70E0F269C
:100E1000BE40B543CF1000F1200646F82750CE1053
:100E200000F1200555F8265045EA0304CE1000F1E4
:100E3000200545F82640F0BD0000024000040240B5
:100E400000080240000C0240001002400014024062
:100E500000180240001C024000200240FA480068CE
:100E600040F00100F84908600020F74908310860A7
:100E7000F5480068F5490840F3490860F448091D41
:100E80000860081F006820F48020091F0860002007
:100E9000ED490C31086070470021EB4A921C11703B
:100EA00011460870704710B501460022002300204B
:100EB0004A11012A02D1E44C236808E0022A03D136
:100EC000E14C7034236802E0DF4C7434236801F095
:100ED0001F02012494401C4201D0012000E00020A8
:100EE00010BD38B5002000900024002500BF31203F
:100EF000FFF7D9FF05460098401C00900098B0F518
:100F0000C06F01D0002DF2D03120FFF7CCFF08B127
:100F1000012400E00024204638BD01460020CA4AD2
:100F2000106820F0F80040EAC10010607047C9491D
:100F3000086070470021C44A703211701170012896
:100F400002D004280AD104E00121BF4A7032117096
:100F500005E00521BC4A7032117000E000BF00BFFF
:100F60007047BD490860704770B5049C41EA82151E
:100F70000126C6EB530645EA0645054345EA0465E6
:100F8000B14E361D356070BDB249086670478201AA
:100F900042EA0172AC4B84331A607047AD498866EF
:100FA0007047AC49C864704702460020A64B08331E
:100FB000186820F0EC6042EA01031843A24B0833A2
:100FC00018607047024600209F4B0833186820F0D5
:100FD000784042EA010318439B4B0833186070477E
:100FE00001460020984A0832106820F003000843A8
:100FF0001060704794480830006800F00C0070479B
:1010000001460020904A0832106820F0F0000843A2
:1010100010607047014600208B4A0832106820F4A7
:10102000E05008431060704701460020864A0832AD
:10103000106820F4604040EAC10010607047F0B5CD
:101040000021002200240225002602237E4F0837BB
:101050003F6807F00C0121B1042905D0082937D1D8
:1010600005E07E4F076036E07D4F076033E0764F46
:101070003F1D3F68C7F38056734F3F1D3F6807F021
:101080003F036EB1764FB7FBF3F7DFF8BCC10CF14D
:10109000040CDCF800C0CCF3881C07FB0CF40CE05B
:1010A0006E4FB7FBF3F7DFF8A0C10CF1040CDCF8CE
:1010B00000C0CCF3881C07FB0CF4634F3F1D3F6856
:1010C000C7F301477F1C7D00B4FBF5F7076002E022
:1010D000624F076000BF00BF5B4F08373F6807F0F3
:1010E000F00109095F4F7A5C0768D7404760564FA7
:1010F00008373F6807F4E051890A5A4F7A5C47681D
:10110000D7408760504F08373F6807F46041490B6C
:10111000544F7A5C4768D740C760F0BD002100F4A7
:101120004072B2F5407F0AD1474A0832116821F473
:10113000F8114D4A02401143434A08321160424AB5
:1011400070321268C0F30B031A433F4B70331A60BE
:10115000704741494439086070473F494039086049
:10116000704742490860704739B1374A30321268D7
:101170000243354B30331A6006E0334A303212688E
:101180008243314B30331A60704739B12E4A3432C2
:10119000126802432C4B34331A6006E02A4A343278
:1011A00012688243284B34331A60704739B1264A9B
:1011B000383212680243244B38331A6006E0224A60
:1011C000383212688243204B38331A60704739B185
:1011D0001D4A4032126802431B4B40331A6006E03E
:1011E000194A403212688243174B40331A607047E5
:1011F00039B1154A443212680243134B44331A6022
:1012000006E0114A4432126882430F4B44331A609D
:10121000704739B10C4A1032126802430A4B10333E
:101220001A6006E0084A103212688243064B1033F7
:101230001A607047E1B1044A143212680243024B4B
:1012400014331A6019E0000000380240FFFFF6FE78
:101250001030002400004742800E47420024F40072
:1012600040787D0100000020FFFCFF0F5C01474239
:101270005B4A126882435A4B1A60704739B1584A28
:10128000121D12680243564B1B1D1A6006E0544A99
:10129000121D12688243524B1B1D1A60704739B1F0
:1012A0004F4A0C32126802434D4B0C331A6006E071
:1012B0004B4A0C3212688243494B0C331A60704718
:1012C00039B1474A103212680243454B10331A6055
:1012D00006E0434A103212688243414B10331A60D1
:1012E000704739B13E4A3C32126802433C4B3C33B2
:1012F0001A6006E03A4A3C3212688243384B3C336B
:101300001A60704739B1364A403212680243344B92
:1013100040331A6006E0324A403212688243304B52
:1013200040331A60704739B12D4A44321268024383
:101330002B4B44331A6006E0294A44321268824338
:10134000274B44331A60704739B1254A4C32126832
:101350000243234B4C331A6006E0214A4C32126898
:1013600082431F4B4C331A60704739B11C4A5032CC
:10137000126802431A4B50331A6006E0184A503282
:1013800012688243164B50331A60704739B1144AC1
:10139000D21F12780243124BDB1F1A7006E0104A6C
:1013A000D21F127882430E4BDB1F1A7070470C4815
:1013B0006030006840F08070094960310860704713
:1013C00001460020064A083A12680A4201D001206C
:1013D00000E0002070470249891F08707047000034
:1013E0001438024010B50446FE48844208D1012159
:1013F0000846FFF765FF00210120FFF761FF9DE030
:10140000B4F1804F08D101210846FFF748FF0021C1
:101410000120FFF744FF91E0F348844208D1012105
:101420000220FFF73CFF00210220FFF738FF85E094
:10143000EE48844208D101210420FFF730FF00214B
:101440000420FFF72CFF79E0E948844208D101210C
:101450000820FFF724FF00210820FFF720FF6DE0A0
:10146000E448844208D101211020FFF718FF002131
:101470001020FFF714FF61E0DF48844208D101210A
:101480002020FFF70CFF00212020FFF708FF55E088
:10149000DA48844208D101210220FFF711FF002120
:1014A0000220FFF70DFF49E0D548844209D1012110
:1014B0000804FFF705FF00214FF48030FFF700FF1D
:1014C0003CE0D048844209D101214804FFF7F8FEEE
:1014D00000214FF40030FFF7F3FE2FE0CA488442AA
:1014E00009D101218804FFF7EBFE00214FF4802091
:1014F000FFF7E6FE22E0C548844208D101214020E2
:10150000FFF7CDFE00214020FFF7C9FE16E0C048DE
:10151000844208D101218020FFF7C1FE00218020F4
:10152000FFF7BDFE0AE0BB48844207D101218015C8
:10153000FFF7B5FE0021A015FFF7B1FE10BD002298
:101540000288A84B98420ED0AC4B98420BD0B0F119
:10155000804F08D0A44B984205D0A44B984202D0AB
:10156000A34B984204D14FF68F731A404B881A430D
:10157000A04B984207D0A04B984204D04FF6FF43AF
:101580001A400B891A4302804B68C3620B8803859B
:10159000944B984202D0994B984201D18B7A0386A2
:1015A0000123838270474FF0FF31416000210180A9
:1015B00001814180817270470185828270470A46AD
:1015C000002101884FF68F73194011430180704745
:1015D00041627047C16270470146486A70470146E0
:1015E000088D704721B1028842F00202028004E0B7
:1015F00002884FF6FD731A400280704721B10288BD
:1016000042F00402028004E002884FF6FB731A40A5
:101610000280704721B1028842F08002028004E01B
:1016200002884FF67F731A400280704702884FF697
:10163000F7731A40028002880A43028070470288CA
:101640004FF6FF431A40028002880A430280704727
:1016500021B1028842F00102028004E002884FF6C4
:10166000FE731A400280704770B5002400220023E8
:10167000058C4FF6FE7635400584028C8388048BFA
:101680004FF68F752C40B51E2C400D882C43751ECF
:101690002A408D892A434D882A43524DA84202D0C0
:1016A000564DA84213D14FF6F7752A40CD892A43EB
:1016B0004FF6FB752A408D882A434FF6FF652B4075
:1016C0004FF6FF552B400D8A2B434D8A2B438380C9
:1016D00004838D684563028470BD70B500240022C8
:1016E0000023058C4FF6EF7635400584028C838805
:1016F000048B48F6FF752C404FF6FF452C400D88B3
:101700004FF6FF7606EA05252C434FF6DF752A4093
:101710008D8906EA05152A434D8806EA05152A43F0
:10172000304DA84202D0354DA8421DD14FF67F75ED
:101730002A40CD894FF6FF7606EA05152A434FF673
:10174000BF752A408D8806EA05152A434FF6FF35F6
:101750002B404FF2FF752B400D8A06EA85052B437F
:101760004D8A06EA85052B43838004838D68856353
:10177000028470BD70B5002400220023058C4FF652
:10178000FF6635400584028C8388848B4FF68F7505
:101790002C404FF6FC752C400D882C434FF6FF551E
:1017A0002A408D894FF6FF7606EA05252A434D88A3
:1017B00006EA05252A430B4DA84202D00F4DA84248
:1017C00038D14FF2FF752A40CD894FF6FF7606EAF1
:1017D00005252A434FF6FF352A408D8806EA052560
:1017E0002A4319E0000001400004004000080040C6
:1017F000000C0040001000400014004000040140B4
:1018000000400140004401400048014000180040F1
:10181000001C0040002000404EF6FF752B404DF6A6
:10182000FF752B400D8A06EA05152B434D8A06EA03
:1018300005152B43838084838D68C563028470BD46
:1018400070B5002200230024058C4EF6FF7635404B
:101850000584038C8488828B48F6FF752A404FF6F6
:10186000FF452A400D884FF6FF7606EA05252A43F4
:101870004DF6FF752B408D8906EA05352B434D88C3
:1018800006EA05352B43FE4DA84202D0FD4DA84285
:1018900008D14BF6FF752C400D8A4FF6FF7606EA0D
:1018A00085152C43848082838D680564038470BD14
:1018B000002101804180818081608181C18101821C
:1018C0004182704770B50346002000241846183046
:1018D00001258D40ACB21D8CA5431D8409B108299A
:1018E0000AD100EB610005684FF68F763540056040
:1018F0000568154305600FE00D1FC5F34E0528442C
:10190000056848F6FF763540056005684FF6FF76B6
:1019100006EA02263543056070BD41637047816366
:101920007047C1637047016470470A460021018B0C
:101930004FF68F7319401143018370470A46002107
:10194000018B48F6FF7319404FF6FF7303EA022339
:101950001943018370470A460021818B4FF68F732C
:1019600019401143818370470A460021818B48F654
:10197000FF7319404FF6FF7303EA02231943818373
:1019800070470A460021018B4FF6F7731940114347
:10199000018370470A460021018B4FF2FF73194003
:1019A0004FF6FF7303EA02231943018370470A4687
:1019B0000021818B4FF6F7731940114381837047E3
:1019C0000A460021818B4FF2FF7319404FF6FF73D7
:1019D00003EA02231943818370470A460021018BE1
:1019E0004FF6FB7319401143018370470A460021EB
:1019F000018B4FF6FF3319404FF6FF7303EA0223C2
:101A00001943018370470A460021818B4FF6FB730F
:101A100019401143818370470A460021818B4FF69C
:101A2000FF3319404FF6FF7303EA02231943818302
:101A300070470A460021018B4FF67F73194011430E
:101A4000018370470A460021018BC1F30E014FF656
:101A5000FF7303EA02231943018370470A460021FA
:101A6000818B4FF67F7319401143818370470A467B
:101A70000021818BC1F30E014FF6FF7303EA0223AD
:101A80001943818370470A460021018C4FF6FD738C
:101A900019401143018470470A460021018C4FF61A
:101AA000F77319401143018470470A460021018CE5
:101AB0004FF6DF7319404FF6FF7303EA0213194321
:101AC000018470470A460021018C4FF67F7319404C
:101AD0004FF6FF7303EA02131943018470470A4665
:101AE0000021018C4FF6FF5319404FF6FF7303EAB4
:101AF00002231943018470470A460021018C4FF2EA
:101B0000FF7319404FF6FF7303EA02231943018460
:101B100070470A460021018C4DF6FF7319404FF6BD
:101B2000FF7303EA023319430184704730B5002381
:101B300001248C40A3B2048C9C430484048C02FADC
:101B400001F5ADB22C43048430BD30B5002304242C
:101B50008C40A3B2048C9C430484048C02FA01F5EB
:101B6000ADB22C43048430BD828B4FF2FF331A4058
:101B70008283828B4FF6FF7303EA01231A43828329
:101B80007047F0B50C461546002100220026078C50
:101B90004EF6FF7C07EA0C070784818B028C4FF618
:101BA000FF7707EA043640F6FF4739404FF6FF77E4
:101BB00007EA052739434FF6FF7707EA033739432A
:101BC00045F6FF773A4046F480573A4381830284D2
:101BD000F0BD828B4FF6F3731A408283828B0A43E7
:101BE00082837047F0B50C4615460021002200267E
:101BF000078C4FF6FF6C07EA0C070784818B028C79
:101C00004FF6FF7707EA04264FF60C7739404FF678
:101C1000FF7707EA03172F4339434FF2FF573A4044
:101C200046F480773A4381830284F0BD028B4FF201
:101C3000FF331A400283028B4FF6FF7303EA01233E
:101C40001A4302837047F0B50C4615460021002266
:101C50000026078C4FF6EF7C07EA0C070784018B00
:101C6000028C4FF6FF7707EA041640F6FF4739402B
:101C70004FF6FF7707EA033739434FF6FF7703E064
:101C8000000001400004014007EA052739434FF6F0
:101C90005F773A4046F010073A4301830284F0BD73
:101CA000028B4FF6F3731A400283028B0A430283BE
:101CB0007047F0B50C46154600210022068C4FF601
:101CC000FE773E400684018B028C4FF60C76314045
:101CD0007E1C06EA03162E4331434FF6F57632405A
:101CE00044F00106324301830284F0BD70B505461D
:101CF0000C46208850B92389A28861882846FFF7BE
:101D0000D8FFE1882846FFF7CBFF25E0208804288C
:101D10000AD12389A28861882846FFF794FFE188C9
:101D20002846FFF783FF17E0208808280AD1238977
:101D3000A28861882846FFF755FFE1882846FFF70B
:101D400048FF09E02389A28861882846FFF719FF28
:101D5000E1882846FFF708FF70BD0021018041801F
:101D6000012181800021C180018170472DE9F0416E
:101D700005460C4600260127608808B9022600E0C7
:101D80000026A088012801D1022700E00127208831
:101D9000A0B92389A28861882846FFF78AFFE188D5
:101DA0002846FFF77DFF23893A4631462846FFF74C
:101DB0004AFFE1882846FFF739FF13E02389A2880C
:101DC00061882846FFF73FFFE1882846FFF72EFF8E
:101DD00023893A4631462846FFF76BFFE1882846BB
:101DE000FFF75EFFBDE8F0810146486B7047014692
:101DF000886B70470146C86B70470146086C704796
:101E00000A884B881A438B881A43CB881A430B895C
:101E10001A434B891A438B891A43A0F84420704710
:101E20000021018041808180C180018141818181C7
:101E3000704731B1B0F8442042F40042A0F8442089
:101E400005E0B0F84420C2F30E02A0F84420704729
:101E500021B1828842F00402828004E082884FF639
:101E6000FB731A408280704721B1828842F00102E0
:101E7000828004E082884FF6FE731A4082807047A9
:101E80001AB183890B43838102E083898B43838169
:101E900070478182704702460020138A0B4201D0AE
:101EA000012000E000207047CA430282704730B52D
:101EB0000246002000230024158A05EA01039589C3
:101EC00005EA010413B10CB1012000E0002030BD8F
:101ED000CA430282704741EA0203A0F848307047C3
:101EE0001AB183890B43838102E083898B43838109
:101EF000704721B1828842F00802828004E0828823
:101F00004FF6F7731A408280704701894FF6F872D6
:101F10001140018170470A46002101894FF68F73F5
:101F2000194011430181704730B504460D462946DA
:101F30002046FFF7F0FF208940F00700208130BDE8
:101F40002DE9F04104460D4616461F46602D06D188
:101F50003B46012231462046FFF775FE05E03B4631
:101F6000012231462046FFF7A4FE29462046FFF70E
:101F7000D2FF208940F007002081BDE8F08130B514
:101F80000C4600210189C9B24FF6FF7505EA032509
:101F9000154325432943018130BD2DE9F041054614
:101FA0000E4617469846002443463A463146284690
:101FB000FFF7E5FF2C894FF6F870044044F0070462
:101FC0004FF68F70044044F070042C81BDE8F0811E
:101FD000F0B504460D4616461F463B463246294696
:101FE0002046FFF7CCFF208940F480402081F0BDDF
:101FF00082884FF68F731A40828082880A438280DB
:10200000704702894FF6F8731A40028102890A4329
:102010000281704702894FF67F731A40028102895C
:102020000A4302817047F0B50C4615461E46002152
:10203000002200230189028B038C4FF6F877394088
:1020400021434FF6FC473A4040F201173A434FF61E
:10205000DD773B404FF6FF7707EA06172F433B43F8
:10206000018102830384F0BD21B1828842F08002A5
:10207000828004E082884FF67F731A408280704726
:10208000A0F850107047000010B50446F74884428D
:1020900008D101211020FFF713F900211020FFF7CC
:1020A0000FF93EE0F248844209D101214804FFF7CC
:1020B000F6F800214FF40030FFF7F1F831E0ED4879
:1020C000844209D101218804FFF7E9F800214FF487
:1020D0008020FFF7E4F824E0E748844209D1012199
:1020E000C804FFF7DCF800214FF40020FFF7D7F811
:1020F00017E0E248844209D101210805FFF7CFF833
:1021000000214FF48010FFF7CAF80AE0DC4884424F
:1021100007D101212020FFF7D3F800212020FFF76D
:10212000CFF810BD2DE9FF4705460E460024A14615
:1021300000BFA046B08900B100BF2C8A24F44054EF
:10214000F08804432C82AC8941F20C608443B0884F
:1021500031890843718908430443AC81AC8A24F473
:102160004074B0890443AC826846FEF768FFBF48FC
:10217000854202D0C248854202D1DDF80C9001E0D0
:10218000DDF80890A88910F4004F08D009EBC900C9
:1021900000EB091031684900B0FBF1F707E009EBEB
:1021A000C90000EB091031688900B0FBF1F7642029
:1021B000B7FBF0F004012009642101FB1078A88925
:1021C00010F4004F08D0322000EBC800B0FBF1F053
:1021D00000F00700044308E0322000EB08106421FF
:1021E000B0FBF1F000F00F0004432C81BDE8FF8745
:1021F0004FF41651016000218180C18001810C21C2
:10220000418100218181704710B502460020108A6B
:1022100020F470600B884C8823438C882343CC883F
:1022200023431843108210BD00210180418081802A
:10223000C180704721B1828942F40052828104E05A
:1022400082894DF6FF731A4082817047028B02F437
:102250007F420283028B0A430283704721B1828945
:1022600042F40042828103E08289C2F30E0282813D
:10227000704721B1828A42F40062828204E0828A3D
:102280004FF2FF731A4082827047C1F308028280C6
:10229000704701468888C0F308007047028A4FF6ED
:1022A000F0731A400282028A0A430282704721B107
:1022B000828942F00202828104E082894FF6FD7336
:1022C0001A408281704782894FF2FF731A408281DF
:1022D00082890A4382817047028A4FF6DF731A406F
:1022E0000282028A0A430282704721B1028A42F4C2
:1022F0008042028204E0028A4BF6FF731A40028297
:102300007047818941F001018181704721B1828A42
:1023100042F00802828204E0828A4FF6F7731A4084
:1023200082827047028BD2B20283028B42EA012280
:102330000283704721B1828A42F02002828204E047
:10234000828A4FF6DF731A408282704721B1828AF7
:1023500042F01002828204E0828A4FF6EF731A4044
:1023600082827047828A4FF6FB731A408282828A89
:102370000A438282704721B1828A42F0020282823D
:1023800004E0828A4FF6FD731A40828270471AB1C8
:10239000838A0B43838202E0838A8B438382704764
:1023A000F0B503460024002600250020A1F51067A3
:1023B0006A3F00D100BF1846C1F3421401F01F0666
:1023C000012707FA06F5012C01D10C3004E0022C9C
:1023D00001D1103000E014301AB107682F430760B4
:1023E00002E00768AF430760F0BD02460020B1F588
:1023F000007F00D100BF13880B4201D0012000E014
:102400000020704701F40072B2F5007F00D100BFD8
:10241000CA430280704770B502460024002300259D
:102420000020A1F510666A3E00D100BFC1F342153D
:1024300001F01F03012606FA03F3012D02D196894C
:10244000334006E0022D02D1168A334001E0968A1D
:1024500033400C12012606FA04F41688344013B1F6
:102460000CB1012000E0002070BD00000010014010
:102470000044004000480040004C00400050004034
:102480000014014010B500220023A1F510646A3C3D
:1024900000D100BF0A1201249440A3B2DC4304809F
:1024A00010BD000008B501F095FD002307221DA115
:1024B000312001F06AF9002000901C4890ED020ADA
:1024C000BDEEC00A10EE100A01B20123042235202D
:1024D00001F0E9F804F0B2FA00BF06F08DFE00202A
:1024E0000090124890ED020ABDEEC00A10EE100AEC
:1024F00001B201230422352001F0D5F80B48D0EDBC
:10250000020AB0EE600A4F21032001F011FD0748D6
:10251000D0ED010AB0EE600A6F21032001F008FD42
:10252000DBE700005961773A00000000FC0300205F
:102530000CB50020019000907548006840F4803090
:102540007349086000BF7248006800F400300090D2
:102550000198401C0190009818B90198B0F5C06F1F
:10256000F1D16B48006810F4003F02D001200090C8
:1025700001E0002000900098012845D164484030D7
:10258000006840F08050624940310860614800684E
:1025900040F440405F4908605D48083000685C498D
:1025A000083108600846006840F4004008600846AA
:1025B000006840F4A05008605748091F0860081FD1
:1025C000006840F08070091F086000BF5048006834
:1025D00010F0007FFAD040F20560504908604C4886
:1025E0000830006820F003004949083108600846B7
:1025F000006840F00200086000BF454808300068ED
:1026000000F00C000828F8D10CBD10B54448006853
:1026100040F47000424908603D48006840F0010005
:102620003B49086000203A49083108603848006892
:102630003C490840364908603B48091D0860081FAE
:10264000006820F48020091F0860002030490C3108
:102650000860FFF76DFF4FF0006031498039086076
:1026600010BD70B500200022022300240221284D55
:1026700008352D6805F00C0020B1042806D0082884
:1026800034D107E0294D2A4E356033E0294D284EDC
:1026900035602FE01E4D2D1D2D68C5F380541C4D57
:1026A0002D1D2D6805F03F0154B1224DB5FBF1F50C
:1026B000174E361D3668C6F3881605FB06F209E08C
:1026C0001A4DB5FBF1F5124E361D3668C6F3881665
:1026D00005FB06F20E4D2D1D2D68C5F301456D1C41
:1026E0006B00B2FBF3F5124E356003E00F4D104E58
:1026F000356000BF00BF064D08352D68C5F30315D2
:102700000D4E705D0A4D2D68C540094E356070BD97
:10271000003802400070004018544007003C02405E
:1027200088ED00E0FFFFF6FE103000240024F400E6
:102730001000002040787D01140000209FE000BFC1
:1027400000BF00BF00BF00BF00BF00BF00BF00BF91
:1027500000BF00BF00BF00BF00BF00BF00BF00BF81
:1027600000BF00BF00BF00BF00BF00BF00BF00BF71
:1027700000BF00BF00BF00BF00BF00BF00BF00BF61
:1027800000BF00BF00BF00BF00BF00BF00BF00BF51
:1027900000BF00BF00BF00BF00BF00BF00BF00BF41
:1027A00000BF00BF00BF00BF00BF00BF00BF00BF31
:1027B00000BF00BF00BF00BF00BF00BF00BF00BF21
:1027C00000BF00BF00BF00BF00BF00BF00BF00BF11
:1027D00000BF00BF00BF00BF00BF00BF00BF00BF01
:1027E00000BF00BF00BF00BF00BF00BF00BF00BFF1
:1027F00000BF00BF00BF00BF00BF00BF00BF00BFE1
:1028000000BF00BF00BF00BF00BF00BF00BF00BFD0
:1028100000BF00BF00BF00BF00BF00BF00BF00BFC0
:1028200000BF00BF00BF00BF00BF00BF00BF00BFB0
:1028300000BF00BF00BF00BF00BF00BF00BF00BFA0
:1028400000BF00BF00BF00BF00BF00BF00BF00BF90
:1028500000BF00BF00BF00BF00BF00BF00BF00BF80
:1028600000BF00BF00BF00BF00BF00BF00BF00BF70
:1028700000BF00BF00BF00BF00BF00BF00BF01001E
:10288000A0F1010290B27FF45AAF704700B5034641
:1028900003E04FF47A70FFF751FF1800A3F1010134
:1028A0008BB2F6D100BD00B50120FFF747FF00BD98
:1028B00000B50220FFF742FF00BD00B50320FFF77F
:1028C0003DFF00BD00B50420FFF738FF00BD00B597
:1028D0000520FFF733FF00BD10B5C048006840F485
:1028E0008000BE490860C814BC4918310880FFF751
:1028F000DAFF4FF48060B94918310880FFF7E7FF2D
:102900004FF40060B5491A310880FFF7E0FF4FF43B
:102910008060B2491A310880FFF7CAFF10BD10B5B8
:10292000AE48006840F48000AC490860C814AB4968
:102930001A310880FFF7B7FF4FF48060A7491831BC
:102940000880FFF7C4FF4FF40060A44918310880E5
:10295000FFF7B8FF10BD10B5A048006840F4800034
:102960009E490860C8149D491A310880FFF79BFFF3
:102970004FF48060994918310880FFF7A8FF4FF4A1
:10298000806096491A310880FFF792FF10BD10B59C
:102990009248006840F4800090490860C8148F494C
:1029A00018310880FFF77FFF4FF480608B491831A2
:1029B0000880FFF78CFF4FF4806088491A31088047
:1029C000FFF776FF10BD10B58448006840F4800022
:1029D00082490860FFF771FF4FF480607F491A3128
:1029E0000880FFF76AFF7D48006820F480007B497B
:1029F0000860C814794918310880FFF75EFF4FF46A
:102A00008060764918310880FFF761FF7348103005
:102A10000068C0F3C02010B1FFF781FF04E04FF45D
:102A200080606E491A31088010BD70B504466B484D
:102A3000006840F480006949086000251FE014F038
:102A4000800F05D04FF4006064491831088004E01D
:102A50004FF4006061491A3108806006040E4FF49B
:102A600080605E4918310880FFF727FF4FF48060CF
:102A70005A491A310880FFF720FF681CC5B2082D9B
:102A8000DDDB70BD70B5054600245448006840F495
:102A9000800052490860C8145049183108804F48D6
:102AA000006820F480004D49086000261DE0FFF713
:102AB000FAFE4FF4806049491A310880FFF707FF9A
:102AC0004FF48060454918310880FFF7F1FE600639
:102AD000040E424810300068C0F3C02008B1601CEA
:102AE000C4B2FFF7E5FE701CC6B2082EDFDB4FF460
:102AF00080603A491A3108802C7070BD1CB50121E4
:102B00000220FEF731FB4FF44060009001208DF869
:102B100004008DF8060002208DF8050000208DF8D5
:102B2000070069462D48FEF7D9F84FF480602B491D
:102B300018310880400008800920294908701CBD10
:102B40002DE9F04180460D4616461F46FFF7C4FEAC
:102B50004046FFF76AFFFFF736FF2846FFF765FF9D
:102B6000FFF731FF002405E0305DFFF75EFFFFF760
:102B70002AFF641CBC42F7DBFFF7D1FEBDE8F08101
:102B80002DE9F04106460F4615461C46FFF7A4FE08
:102B90003046FFF74AFFFFF716FF3846FFF745FFBD
:102BA000FFF711FFFFF798FE711CC8B2FFF73DFF5A
:102BB000FFF709FF0CE02846FFF764FF012C02D164
:102BC000FFF7E5FE01E0FFF7C6FE6D1C601EC4B214
:102BD000002CF0D1FFF7A3FEBDE8F0810004024015
:102BE000240000201CB501211020FEF7BDFA7C2036
:102BF000009001208DF8040000208DF806000220CE
:102C00008DF8050001208DF8070069460B48FEF796
:102C100065F804210948FEF7DDF808210748FEF7AA
:102C2000D9F810210548FEF7D5F820210348FEF712
:102C3000D1F840210148FEF7CDF81CBD001002403C
:102C400010B50520FDF778FD10BD02460020614B50
:102C50009A4206D2B2F1006F03D300BF5B1E0B6035
:102C600070E05D4B9A4207D25A4B9A4204D3082037
:102C7000594B5B1E0B6065E0584B9A4207D2564B8E
:102C80009A4204D31020554B5B1E0B605AE0544B04
:102C90009A4207D2514B9A4204D31820504B5B1EE4
:102CA0000B604FE04F4B9A4207D24D4B9A4204D3F0
:102CB00020204C4B5B1E0B6044E04B4B9A4207D2EA
:102CC000484B9A4204D32820474B5B1E0B6039E0E7
:102CD000464B9A4207D2444B9A4204D33020434B8E
:102CE0005B1E0B602EE0424B9A4207D23F4B9A424A
:102CF00004D338203E4B5B1E0B6023E03D4B9A42D1
:102D000007D23B4B9A4204D340203A4B5B1E0B60E8
:102D100018E0394B9A4207D2364B9A4204D34820E6
:102D2000354B5B1E0B600DE0344B9A4207D2324BA1
:102D30009A4204D35020314B5B1E0B6002E05820B6
:102D40002F4B0B6070472DE9F84304460F4615469C
:102D500000262048401E0090FDF72CFDF320FDF7D3
:102D600049FF69462046FFF770FF80460221FDF7C4
:102D70006DFD85B100BF0CE00098844208D200BF11
:102D800057F826102046FDF70BFE0828F8D1241D21
:102D9000761CAE42F0D3FDF71AFDBDE8F883F8B516
:102DA00004460F46154600260A48401E0090694614
:102DB0002046FFF74AFF5DB100BF07E0009884425C
:102DC00003D2206847F82600241D761CAE42F5D3B6
:102DD000F8BD0000004000080080000800C00008A6
:102DE00000000108000002080000040800000608B6
:102DF0000000080800000A0800000C0800000E0887
:102E0000FFFF0F0810B5002807DA0A07140EFE4A64
:102E100000F00F031B1FD45403E00A07130EFB4AF4
:102E2000135410BD70B5054600BFF94805FB00F40A
:102E3000B4F1807F01D3012011E024F07F40401ED7
:102E40004FF0E02148610F214FF0FF30FFF7DAFF2C
:102E500000204FF0E0218861072008610020002851
:102E6000E3D10F21401EFFF7CDFF70BD2DE9F043E8
:102E70008BB00D2447F22F5543F2FA263746B04661
:102E8000B14601210846FEF76FF94FF470600990D2
:102E900002208DF8280000208DF82A0003208DF8EC
:102EA000290001208DF82B0009A9DA48FDF716FF4B
:102EB00001220821D748FDF79CFF01220921D548AE
:102EC000FDF797FF01220A21D248FDF792FF012268
:102ED0000B21D048FDF78DFF01210846FEF788F948
:102EE000CD48FEF77FFAADF8184007950020ADF801
:102EF0002000ADF81A0006A9C748FEF720FB6020A5
:102F0000ADF804000120ADF806000420ADF808007B
:102F10000020ADF81000ADF812004FF48070ADF84D
:102F20001400ADF81600039601A9BB48FEF79CFB00
:102F30000821B948FEF725FD039701A9B648FEF719
:102F4000CCFB0821B448FEF725FDCDF80C8001A983
:102F5000B148FEF70FFC0821AF48FEF728FDCDF879
:102F60000C9001A9AC48FEF76BFC0821AA48FEF7BB
:102F700027FD0121A848FEF74DFB0121A648FEF7D9
:102F800067FB0121A448FEF754FF0BB0BDE8F083B6
:102F900010B5A14C6363A263E163206410BD30B53A
:102FA00089B006254FF6FF7401210846FEF7DCF8CC
:102FB000C020079002208DF8200000208DF822000C
:102FC00002208DF821008DF8230007A99148FDF714
:102FD00085FE022206218F48FDF70BFF0222072102
:102FE0008C48FDF706FF01210220FEF7BDF8032003
:102FF000079002208DF8200000208DF8220002208A
:103000008DF821008DF8230007A98448FDF766FE9E
:10301000022200218148FDF7ECFE022201217F48B7
:10302000FDF7E7FE01210220FEF7D1F8ADF81050C0
:1030300005940020ADF81800ADF8120004A97848F6
:10304000FEF77DFA0020ADF80400ADF80C00ADF8F5
:103050000600ADF80A000120ADF8080001A970488B
:10306000FEF744FE0420ADF804000020ADF80C008B
:10307000ADF80600ADF80A000120ADF8080001A97E
:103080006748FEF733FE0820ADF804000020ADF8D5
:103090000C00ADF80600ADF80A000120ADF80800FC
:1030A00001A95F48FEF722FE0C20ADF804000020C5
:1030B000ADF80C00ADF80600ADF80A000120ADF83F
:1030C000080001A95648FEF711FE01215448FEF7F9
:1030D000BFFA1D208DF8000002208DF801000020AD
:1030E0008DF8020001208DF803006846FDF7E5F831
:1030F00001221E214A48FEF7C3FE1E214848FEF762
:10310000E7FE1E214648FEF7CFFE09B030BD10B5E0
:1031100001221E214248FEF7B3FE10BD10B5002269
:103120001E213F48FEF7ACFE10BD30B589B0062524
:103130004FF6FF7401210820FEF716F84FF46040A7
:10314000079002208DF8200000208DF82200022038
:103150008DF821008DF8230007A93248FDF7BEFD48
:1031600002220D212F48FDF744FE02220E212D4898
:10317000FDF73FFE02220F212A48FDF73AFE01210A
:103180000420FEF724F8ADF8105005940020ADF8A7
:103190001800ADF8120004A92348FEF7D0F9042066
:1031A000ADF804000020ADF80C00ADF80600ADF855
:1031B0000A000120ADF8080001A91B48FEF796FDA2
:1031C0000820ADF804000020ADF80C00ADF80600B2
:1031D000ADF80A000120ADF8080001A91248FEF779
:1031E00085FD0C20ADF804000020ADF80C00ADF812
:1031F0000600ADF80A000120ADF8080001A90A4850
:10320000FEF774FD012111E018ED00E000E400E09C
:103210004090020000000240000001400004024013
:1032200000040040000C0240000800404D48FEF73A
:103230000FFA1E208DF8000002208DF801000120F9
:103240008DF802008DF803006846FDF736F801227C
:103250001C214448FEF714FE1C214248FEF738FEAC
:103260001C214048FEF720FE09B030BD10B50122F8
:103270001C213C48FEF704FE10BD10B500221C21A5
:103280003848FEF7FDFD10BD30B589B053254FF627
:10329000FF7401210846FDF767FF80200790022098
:1032A0008DF8200000208DF8220002208DF82100EA
:1032B0008DF8230007A92C48FDF710FD09220721EE
:1032C0002948FDF796FD01210802FDF780FFADF8C2
:1032D000105005940020ADF81800ADF8120004A9B4
:1032E0002248FEF72CF90020ADF80400ADF80C00E0
:1032F000ADF80600ADF80A000120ADF8080001A9FC
:103300001A48FEF7F3FC01211848FEF7A1F92D2019
:103310008DF8000002208DF8010003208DF80200D6
:1033200001208DF803006846FCF7C7FF0122022147
:103330000E48FEF7A5FD02210C48FEF7C9FD02214B
:103340000A48FEF7B1FD09B030BD10B5FFF78EFD9C
:10335000FFF725FEFFF7E9FEFFF796FF0F20FFF7C7
:1033600061FD10BD00080040000002400020004048
:1033700070B5044608254020F8490880002525E05E
:103380000120FFF7DBF94FF40070F44908800120B9
:10339000FFF7D4F914F0800F05D04FF48070EF4997
:1033A000891E088003E04FF48070EC4908800120FA
:1033B000FFF7C4F94FF40070E849891E0880012026
:1033C000FFF7BCF96006040E681CC5B2082DD7DBF8
:1033D00070BD70B5044608254020E049891E08806C
:1033E000002525E00120FFF7A9F94FF40070DB4923
:1033F00008800120FFF7A2F914F0800F05D04FF4E8
:103400008070D649891E088003E04FF48070D3494C
:1034100008800120FFF792F94FF40070CF49891E10
:1034200008800120FFF78AF96006040E681CC5B207
:10343000082DD7DB70BD2DE9F05F06468946924620
:103440004FF00008C64800F80690002700BF07EBC1
:103450000710C449085C484504D007EB0710085C16
:10346000202801D1B84602E0781CC7B2EFE700BFC0
:1034700030114FEA400B3007450E0BF1B001C8B2D6
:10348000FFF776FF102101EB1510FFF771FF05F034
:103490000F00FFF76DFF002417E0BAF1010F0AD10A
:1034A00008EB0811AF4A1144491C095DC943C8B271
:1034B000FFF78FFF07E008EB0811AA4A1144491CE7
:1034C000085DFFF786FF601CC4B2082CE5DB0BF13A
:1034D000B101C8B2FFF74CFF102101EB1510FFF747
:1034E00047FF05F00F00FFF743FF00241BE0BAF190
:1034F000010F0CD108EB08119A4A1144491C04F140
:103500000802895CC943C8B2FFF763FF09E008EB12
:103510000811944A1144491C04F10802885CFFF721
:1035200058FF601CC4B2082CE1DBBDE8F09F2DE918
:10353000F05F06460F4692464FF0000938788849FA
:1035400088557978864A701C1154002500BF387858
:10355000C5EBC50101EB8101834A515C884208D16A
:103560007878C5EBC50101EB8101114449788842A7
:103570000FD0C5EBC50000EB80007B49085C20281C
:1035800009D1C5EBC50000EB800008444078202835
:1035900001D1A94602E0681CC5B2D8E700BF3011CE
:1035A0004FEA400B30074FEA50680BF1B001C8B248
:1035B000FFF7DEFE102101EB1810FFF7D9FE08F02F
:1035C0000F00FFF7D5FE00241BE0BAF1010F0CD16C
:1035D000C9EBC90101EB8101634A1144C91C095DB2
:1035E000C943C8B2FFF7F5FE09E0C9EBC90101EB19
:1035F00081015D4A1144C91C085DFFF7EAFE601CA9
:10360000C4B2102CE1DB0BF1B101C8B2FFF7B0FE80
:10361000102101EB1810FFF7ABFE08F00F00FFF7C9
:10362000A7FE00241FE0BAF1010F0ED1C9EBC901BA
:1036300001EB81014C4A1144C91C04F11002895C60
:10364000C943C8B2FFF7C5FE0BE0C9EBC90101EBE6
:103650008101454A1144C91C04F11002885CFFF73E
:10366000B8FE601CC4B2102CDDDBBDE8F09F70B565
:10367000002415E004F1B001C8B2FFF779FE102074
:10368000FFF776FE0020FFF773FE002504E0002020
:10369000FFF79FFE681CC5B2802DF8DB601CC4B22A
:1036A000082CE7DB70BD2DE9F05F04460D46164699
:1036B000984601274FF000094FF0000AB8F1010FBA
:1036C00016D1002D08DA2D2120460A9AFFF7B3FE05
:1036D00068421FFA80F906E0202120460A9AFFF787
:1036E000AAFE1FFA85F9701EC6B2A019C4B204E082
:1036F0001FFA85F9A019401EC4B23EE0B7F5FA6F73
:1037000019DA07EB8700400099FBF0F100FB1190FC
:1037100090FBF7F0303000F0FF0B2046621ED4B271
:1037200059460A9AFFF787FE07EB87004FF6FF71AD
:1037300001EA400721E0BAF1000F17D199FBF7F039
:10374000303000F0FF0B2046621ED4B259460A9A70
:10375000FFF771FE4FF0010A0FE000001A08024067
:103760001C0200208AFF0008D90501082046621EBD
:10377000D4B220210A9AFFF75EFE3000A6F10101C3
:10378000CEB2BBD1BDE8F09F70472DE9F0410546B0
:103790000C4617469846002F30DD00262BE03F2DC3
:1037A00000DD2AE02078A0280ADA2178424628465F
:1037B000FFF741FE681CC5B2641C701CC6B21AE05B
:1037C00005F00F000F2807D1424620212846FFF7B9
:1037D00032FE681CC5B20EE0424621462846FFF77D
:1037E000A6FE681CC5B2681CC5B2641C641C701CB3
:1037F000C6B2701CC6B2BE42D1DB39E0012702E07E
:10380000641C781CC7B220780A28F9D1E41B002672
:103810002BE03F2D00DD2AE02078A0280ADA21786D
:1038200042462846FFF707FE681CC5B2641C701CA0
:10383000C6B21AE005F00F000F2807D1424620213A
:103840002846FFF7F8FD681CC5B20EE04246214647
:103850002846FFF76CFE681CC5B2681CC5B2641C24
:10386000641C701CC6B2701CC6B2BE42D1DB00BF65
:10387000BDE8F08110B500208349087028E0824936
:103880000978B031C8B2FFF773FD1020FFF770FD63
:103890000020FFF76DFD00207C4908700FE07B4998
:1038A0000978794A1278802313FB0211784A505C18
:1038B000FFF78FFD75480078401C74490870734805
:1038C00000788028EBDB70480078401C6E49087057
:1038D0006D4800780828D2DB10BD2DE9F04105467F
:1038E0000E4617466B48441900206B49087024E0C7
:1038F0002078A0280DDA21783A462846FFF79BFD6C
:10390000681CC5B2641C64480078401C6249087099
:1039100013E03A4621462846FFF709FE681CC5B267
:10392000681CC5B2641C641C5B480078401C5A4982
:10393000087008460078401C087057480078B0426C
:10394000D6DBBDE8F0811CB501210420FDF70CFC9D
:103950004FF44070009002208DF8050001208DF892
:10396000040000208DF806008DF8070069464B48DA
:10397000FDF7B4F901210420FDF7F6FBC02000900B
:1039800002208DF8050001208DF8040000208DF83C
:1039900006008DF8070069464048FDF79FF94FF48F
:1039A00000703E49183108808020891C08800A2058
:1039B000FEF76CFF80203949183108804020891CAF
:1039C0000880AE20FFF7D4FC2020FFF7D1FC1020A8
:1039D000FFF7CEFCB020FFF7CBFCC820FFF7C8FCF8
:1039E0000020FFF7C5FC1020FFF7C2FC4020FFF7C6
:1039F000BFFC8120FFF7BCFC7F20FFF7B9FCA120B2
:103A0000FFF7B6FCA620FFF7B3FCA820FFF7B0FC39
:103A10003F20FFF7ADFCA420FFF7AAFCD320FFF75F
:103A2000A7FC0020FFF7A4FCD520FFF7A1FCF020A5
:103A3000FFF79EFCD920FFF79BFC2220FFF798FCA4
:103A4000DA20FFF795FC1220FFF792FCDB20FFF74E
:103A50008FFC2020FFF78CFC8D20FFF789FC1420C1
:103A6000FFF786FCAF20FFF783FCFFF703FF4FF45F
:103A7000FA70FEF70BFFFFF7FAFD0023072208A1FB
:103A80000520FFF782FE1CBD250000202600002037
:103A9000B80801081C02002027000020000802408E
:103AA000656E69636500000000B591B0012188056D
:103AB000FDF75AFB44208DF8400002208DF84100AC
:103AC00000208DF8420001208DF8430010A8FCF77B
:103AD000F4FB01218805FDF747FBF748FCF75AFC8A
:103AE0004FF000600190F5480290F54803900020E7
:103AF000049002200590002006904FF4806007900B
:103B00000020089009900A904FF440300B9000205C
:103B10000C9001200D9000200E900F9001A9E64816
:103B2000FCF7DAFC0121E448FCF710FD01224021FA
:103B3000E248001FFEF72BFC01214805FDF714FBAE
:103B400010208DF8400002208DF8410000208DF8F3
:103B5000420001208DF8430010A8FCF7AEFB0121C4
:103B60004805FDF701FBD748FCF714FC4FF0006057
:103B70000190D5480290D5480390002004904FF45E
:103B800080600590002006904FF480600790002030
:103B9000089009900A904FF440300B9000200C9050
:103BA00001200D9000200E900F9001A9C548FCF750
:103BB00093FC0121C348FCF7C9FC01224021C24803
:103BC000001FFEF7E4FB01214805FDF7CDFA0C20AC
:103BD0008DF8400002208DF8410000208DF8420051
:103BE00001208DF8430010A8FCF767FB0121480570
:103BF000FDF7BAFAB3486038FCF7CCFB4FF0006031
:103C00000190B3480290B3480390002004904820EC
:103C10000590002006904FF48060079000200890E7
:103C200009900A904FF440300B9000200C90012036
:103C30000D9000200E900F9001A9A2486038FCF76B
:103C40004BFC01219F486038FCF780FC0122402199
:103C50009F48001FFEF79BFB11B000BD30B587B039
:103C600004460D4601211020FDF7C2FA0121022071
:103C7000FDF77AFAC020059002208DF81800002088
:103C80008DF81A0002208DF8190001208DF81B0014
:103C900005A99148FDF722F8072206218E48FDF775
:103CA000A8F8072211468C48FDF7A3F88348001FA7
:103CB000FEF7EAF9206801900020ADF80800ADF8A1
:103CC0000A00ADF80C00ADF810000C20ADF80E00A5
:103CD00001A97A48001FFEF725FA01217748001F45
:103CE000FEF7A8FA80217548001FFEF78BFB252000
:103CF0008DF8000000208DF8010001208DF80200F1
:103D00008DF803006846FCF7D8FA2878012800D11E
:103D100000E00020024640F225516848001FFEF7EF
:103D20003FFB01214804FDF752FA01210820FDF76D
:103D30001BFA6020059002208DF8180000208DF8F5
:103D40001A0002208DF8190001208DF81B0005A92A
:103D50006248FCF7C3FF072205216048FDF749F8D8
:103D6000072206215D48FDF744F85748001FFEF77B
:103D70008BF9606801900020ADF80800ADF80A00EA
:103D8000ADF80C00ADF810000C20ADF80E0001A944
:103D90004D48001FFEF7C6F901214B48001FFEF7F2
:103DA00049FA80214848001FFEF72CFB26208DF899
:103DB000000000208DF801008DF8020001208DF830
:103DC00003006846FCF779FA6878012800D100E022
:103DD0000020024640F225513B48001FFEF7E0FA62
:103DE00001218804FDF7F3F901210420FDF7BCF956
:103DF0004FF44060059002208DF8180000208DF8E7
:103E00001A0002208DF8190001208DF81B0005A969
:103E10003348FCF763FF07220A213148FCF7E9FF2A
:103E200007220B212E48FCF7E4FF2948001FFEF76C
:103E30002BF9A06801900020ADF80800ADF80A0049
:103E4000ADF80C00ADF810000C20ADF80E0001A983
:103E50001F48001FFEF766F901211D48001FFEF7ED
:103E6000E9F980211A48001FFEF7CCFA27208DF8C7
:103E7000000000208DF801008DF8020001208DF86F
:103E800003006846FCF719FAA878012800D100E081
:103E90000020024640F225510D48001FFEF780FA2F
:103EA00007B030BD70B504460D46012C1AD0022C67
:103EB00024D0032C3AD12DE0886402400410014044
:103EC000A80800208860024004440040A80C00209C
:103ED00004480040A810002000040240000C0240EA
:103EE0000008024029463748FEF7CFF900BF80217D
:103EF0003448FEF77AFA0028F9D017E0294632480C
:103F0000FEF7C3F900BF80212F48FEF76EFA0028A4
:103F1000F9D00BE029462D48FEF7B7F900BF802104
:103F20002A48FEF762FA0028F9D000BF00BF70BD32
:103F300070B52DED028B04460D46B0EE408A244844
:103F400080ED008A55212046FFF7ACFF2946204628
:103F5000FFF7A8FF1E4801782046FFF7A3FF1C4883
:103F600041782046FFF79EFF194881782046FFF7E9
:103F700099FF1748C1782046FFF794FFAA212046F1
:103F8000FFF790FFBDEC028B70BD70B504460025B5
:103F9000012C04D0022C07D0032C0FD109E00948D2
:103FA000FEF777F9C5B209E00748FEF772F9C5B226
:103FB00004E00648FEF76DF9C5B200BF00BF284611
:103FC00070BD000000100140004400400048004067
:103FD0002800002010B503F03EFBFEF703FE0D495C
:103FE0000D48FFF73BFEFFF75FFDFEF787FD02F090
:103FF00011F902F04DFD01F0ADFD00F011FF01F0EF
:104000009AFB08F0EFFFFFF79EFCFFF79EF903F025
:104010001DFB10BD4C0000204000002010B52DED10
:104020000C8B03F066FE02F0BBF900287DD0FE4841
:1040300000780028FAD0FD48007860B1FC4890ED87
:10404000000AFC4880ED000AFB4880ED000A0020D1
:10405000F649087020E0F84890ED000AF448D0EDE9
:10406000000AB4EEE00AF1EE10FA05D290ED000A73
:10407000F14880ED000A0FE0EE4890ED000AEC48B0
:10408000D0ED000AB4EEE00AF1EE10FA04DD90ED96
:10409000000AE84880ED000AE8480088642804DD4A
:1040A0000020E6490880E0490870E5480088401C87
:1040B000E3490880E3480078401CE249087008465C
:1040C0000078022804D102F0B9FC0020DD49087014
:1040D000DB4800880A2810DB0020D9490880042129
:1040E000D948FCF76AFE08B9012000E00020044628
:1040F00022460421D448FCF771FE03F0B1FA9FED8B
:10410000D30AD34880ED000A90ED000A01F0D2FCFA
:10411000D04880ED000A90ED000ACF48D0ED000AAB
:1041200030EE200AD0ED010A00E0CBE230EE200AAA
:10413000D0ED020A30EE200AD0ED030A30EE200A5C
:10414000D0ED040A30EE200AD0ED050A30EE200A48
:10415000D0ED060A30EE200AD0ED070A30EE200A34
:10416000D0ED080A30EE200AD0ED090A30EE200A20
:10417000D0ED0A0A30EE200AF2EE080A80EE201A8C
:10418000B44880ED001AA948007860B1B14890EDBC
:10419000000AA84880ED000AA74880ED000A002028
:1041A000A249087022E0AB4890ED000AA248D0ED89
:1041B000000AB4EEE00AF1EE10FA06DDA54890ED33
:1041C000000A9D4880ED000A10E0A24890ED000A28
:1041D0009848D0ED000AB4EEE00AF1EE10FA05D2EC
:1041E0009C4890ED000A934880ED000A9A4890EDB3
:1041F000090A80ED0A0A90ED080A80ED090A90ED9F
:10420000070A80ED080A90ED060A80ED070A90ED96
:10421000050A80ED060A90ED040A80ED050A90ED8E
:10422000030A80ED040A90ED020A80ED030A90ED86
:10423000010A80ED020A90ED000A80ED010A85482E
:1042400090ED000A844880ED000A01208149087140
:1042500004F062F908F0F4FC8048808843F2903161
:10426000884221DC7D48808800281DDD7B4840880D
:10427000002819DD7948408843F2E851884213DA72
:1042800077480088401C76490880084600883C280A
:104290002DDB01207349087010216B48FCF79CFD51
:1042A00000206F49088022E06C48808843F29031FA
:1042B00088421CDC69488088002818DD67484088EF
:1042C00045F6AC01884212DD65480088401C64490F
:1042D0000880084600883C2809DD002061490870F4
:1042E00010215948FCF776FD00205D4908805D48A3
:1042F000007800287DD05948008843F290318842E8
:1043000078DA56480088002874DD40214E48FCF7D2
:1043100061FD52488088A0F54C50903800EE100A9C
:10432000F8EEC00A9FED501A9FED500A00EE810A88
:104330004F4880ED020A4948C088A0F58C403C38BF
:10434000404200EE100AB8EEC00ADFED4A0A20EE45
:10435000200A494880ED000A90ED000ADFED470A87
:10436000B4EEE00AF1EE10FA0CD890ED000ADFEDA1
:10437000440AB4EEE00AF1EE10FA03DB9FED330AD3
:1043800080ED000A35480089A0F58C40503800EED9
:10439000100AB8EEC00ADFED370A20EE200A3648D0
:1043A00080ED010A90ED010ADFED340AB4EEE00A77
:1043B000F1EE10FA0CD890ED010ADFED310AB4EEFF
:1043C000E00AF1EE10FA03DB9FED200A80ED010A0E
:1043D00022484088A0F58C403C3800EE100AB8EE28
:1043E000C00ADFED280A20EE200A214880ED060AE7
:1043F00001E002E382E190ED060ADFED230AB4EE6C
:10440000E00AF1EE10FA0CD890ED060ADFED1F0A73
:10441000B4EEE00AF1EE10FA03DB9FED0C0A80ED3A
:10442000060A1B4836E000003A0000207D0000200C
:104430002C00002034000020300000207E000020EE
:10444000780000207C0000200010024000000000E6
:104450006C00002070000020481700203C1700204E
:104460007A0000203C0000206666863F00685846BF
:10447000700200203B704E3B94000020CDCCCC3D20
:10448000CDCCCCBDE8FFB0376F12833A6F1283BA40
:10449000FC03002090ED020A10EE101A08460BF003
:1044A000F9FC41EC100BB0EE40DAF0EE60DA0AF005
:1044B00027FAB0EE40BAF0EE60BAFE4890ED010A7D
:1044C00010EE101A08460BF0E5FC41EC100BB0EEB4
:1044D00040CAF0EE60CA53EC1B2B51EC1C0B0BF0E6
:1044E000E3F941EC100BB0EE409AF0EE609AF2481E
:1044F00090ED020A10EE101A08460BF0CBFC41ECCE
:10450000100BB0EE40DAF0EE60DA09F069FEB0EEC2
:1045100040BAF0EE60BAE74890ED000A10EE101ACB
:1045200008460BF0B7FC41EC100BB0EE40CAF0EEC1
:1045300060CA53EC1B2B51EC1C0B0BF0B5F941EC92
:10454000100BB0EE40AAF0EE60AA53EC192B51EC20
:104550001A0B0AF007FF41EC100BB0EE408AF0EEA8
:10456000608A51EC180B0AF0CBFED449C860D248DF
:1045700090ED020A10EE101A08460BF08BFC41EC8D
:10458000100BB0EE40DAF0EE60DA09F029FEB0EE82
:1045900040BAF0EE60BAC74890ED010A10EE101A6A
:1045A00008460BF077FC41EC100BB0EE40CAF0EE81
:1045B00060CA53EC1B2B51EC1C0B0BF075F941EC52
:1045C000100BB0EE409AF0EE609ABB4890ED020AF4
:1045D00010EE101A08460BF05DFC41EC100BB0EE2B
:1045E00040DAF0EE60DA0AF08BF9B0EE40BAF0EEA5
:1045F00060BAB04890ED000AFFEE000A20EE200AF3
:1046000010EE101A08460BF045FC41EC100BB0EE12
:1046100040CAF0EE60CA53EC1B2B51EC1C0B0BF0A4
:1046200043F941EC100BB0EE40AAF0EE60AA53EC57
:10463000192B51EC1A0B0AF095FE41EC100BB0EE61
:10464000408AF0EE608A51EC180B0AF059FE9B4943
:104650000861084690ED050AD0ED060A30EE200A02
:1046600080ED050A944A92ED000ABDEEC00A10EEF4
:10467000101A002901DB0A4600E04A42232A2CDAFC
:104680008D4A92ED010ABDEEC00A10EE100A002814
:1046900001DB024600E04242232A1EDA874890ED01
:1046A000020A5FED8E0AB4EEE00AF1EE10FA0ADDBE
:1046B00090ED050AD0ED060A30EE200A80ED050ADD
:1046C00008F0B2FDA6E143F21A631A4619461846ED
:1046D000FEF75EFC08F09DFD9CE100207849087023
:1046E00043F2FA231A4619461846FEF751FC08F021
:1046F00090FD10217348FCF76DFB8BE17248008838
:1047000045F6AC018842DDDD40216E48FCF764FBD4
:104710006E48007800287CD06B480089A0F58C405A
:10472000503800EE100AB8EEC00ADFED690A20EE3C
:10473000200A624880ED070A90ED070ADFED650A5E
:10474000B4EEE00AF1EE10FA0CD890ED070ADFEDB6
:10475000620AB4EEE00AF1EE10FA03DB1FEDC50ABF
:1047600080ED070A5848C088A0F58C403C3840428C
:1047700000EE100AB8EEC00ADFED550A20EE200A5E
:104780004E4880ED080A90ED080ADFED520AB4EEBB
:10479000E00AF1EE10FA0CD890ED080ADFED4E0AAF
:1047A000B4EEE00AF1EE10FA03DB1FEDD80A80ED5B
:1047B000080A45484088A0F58C403C3800EE100AB5
:1047C000B8EEC00ADFED420A20EE200A3B4880ED39
:1047D000090A90ED090A5FEDD40AB4EEE00AF1EEA1
:1047E00010FA0CD890ED090A5FEDD80AB4EEE00A91
:1047F000F1EE10FA03DB1FEDEB0A80ED090A2F48FA
:1048000090ED0A0AD0ED070AB7EE001A00EE810A11
:1048100000E0E8E080ED0A0A90ED0B0AD0ED080A0E
:10482000B7EE001A00EE810A80ED0B0A90ED0C0A3B
:10483000D0ED090A30EE200A80ED0C0A274890EDF1
:10484000000A1E48D0ED0D0A30EE600AD0ED0A0ACB
:1048500030EEC00A80ED100A204890ED010A17489A
:10486000D0ED0E0A30EE600AD0ED0B0A30EEC00A31
:1048700080ED110A194890ED020A1048D0ED0F0A98
:1048800030EE600AD0ED0C0A30EEC00A80ED120A5C
:1048900090ED170AD0ED110A30EE200A80ED170ACC
:1048A00090ED110AF1EE020A20EE200AD0ED170A6F
:1048B00016E0000094000020FC030020700200209D
:1048C0003C000020001002403C1700203B0000206C
:1048D000233A3A376F12033B6F1203BB00160020D6
:1048E0009FEDFE1A00EE810AFD48D0ED040AB1EEFC
:1048F000021A00EEC10AFB4880ED030A90ED160A89
:10490000D0ED100A30EE200A80ED160AF6488088B5
:10491000A0F54C50903800EE100AF8EEC00A9FED5A
:10492000F31A9FEDF30A00EE810AEE4880ED020AC9
:10493000F04A92ED000ABDEEC00A10EE101A0029EE
:1049400001DB0A4600E04A42232A3BDAE94A92EDBB
:10495000010ABDEEC00A10EE100A002801DB024673
:1049600000E04242232A2DDADE4890ED020ADFED14
:10497000E00AB4EEE00AF1EE10FA02DD08F054FCB1
:1049800048E0D74890ED000AD64880ED0D0AD4489B
:1049900090ED010AD34880ED0E0AD14890ED020A4D
:1049A000D04880ED0F0A9FEDCD0ACD4880ED040A76
:1049B00043F21A631A4619461846FEF7E9FA08F058
:1049C00028FC27E00020CC49087043F2FA231A465D
:1049D00019461846FEF7DCFA08F01BFC1021C74800
:1049E000FCF7F8F916E043F2FA231A46194618467E
:1049F000FEF7CEFA08F00DFC0CE04021BF48FCF7B2
:104A0000E9F943F2FA231A4619461846FEF7C0FAA6
:104A100008F0FFFBBDEC0C8B10BD10B50421B848AD
:104A2000FDF745FA70B30521B548FDF751FA0521A8
:104A3000B348FDF739FAB348007878B90021B04897
:104A4000FCF7C6FDAE482030008840F02000AC499D
:104A5000203108800120AB49087013E0A948007894
:104A600001280FD1A648FDF7C2F9A7490880A4483C
:104A70002030008820F02000A1492031088000204B
:104A8000A049087008219E48FDF711FA70B309216A
:104A90009B48FDF71DFA09219948FDF705FA9B4847
:104AA000007878B900219648FCF792FD94482030B0
:104AB000008840F400709249203108800120934919
:104AC000087013E09148007801280FD18C48FDF759
:104AD00091F98F4908808A482030008820F40070BE
:104AE00087492031088000208849087010218448B7
:104AF000FDF7DDF970B311218148FDF7E9F91121C6
:104B00007F48FDF7D1F98348007878B900217C48C7
:104B1000FCF75EFD7A482030008840F40050784968
:104B20002031088001207B49087013E07948007823
:104B300001280FD17248FDF760F977490880704865
:104B40002030008820F400506D492031088000207A
:104B5000704908706C480088634948816C48008837
:104B600008816D480088C88010BD10B504216B48CD
:104B7000FDF79DF970B305216848FDF7A9F90521F6
:104B80006648FDF791F96648007878B900216348D6
:104B9000FCF71EFD61482030008840F020005F498E
:104BA0002031088001205E49087013E05C480078DD
:104BB00001280FD15948FDF71AF95A49088057487A
:104BC0002030008820F02000544920310880002047
:104BD0005349087008215148FDF769F970B309215C
:104BE0004E48FDF775F909214C48FDF75DF94E482F
:104BF000007878B900214948FCF7EAFC47482030A2
:104C0000008840F400704549203108800120464961
:104C1000087013E04448007801280FD13F48FDF7A1
:104C2000E9F8424908803D482030008820F40070AF
:104C30003A492031088000203B490870102137484C
:104C4000FDF735F970B311213448FDF741F9112111
:104C50003248FDF729F93648007878B900212F4805
:104C6000FCF7B6FC2D482030008840F400502B495A
:104C70002031088001202E49087013E02C4800786C
:104C800001280FD12548FDF7B8F82A4908802348A4
:104C90002030008820F40050204920310880002076
:104CA000234908701F4800880F4988801F480088E2
:104CB000488020480088088010BD10B540F225517A
:104CC0001D48FDF7A8FBC8B31B4800881A48808818
:104CD00040F225511848FDF7D5FB30E000000000F8
:104CE00000160020700200203C1700206666863FF8
:104CF00000685846FC0300203C00002000100240E1
:104D00000004004086000020800000208700002072
:104D1000820000208800002084000020000800405D
:104D2000900000208A000020910000208C000020CC
:104D3000920000208E0000200010014016E00021AB
:104D40002F48FBF703FC2F492D48FBF777FC2E4833
:104D50004178007801EB00202C4908800221284886
:104D6000FBF715FC01212648FBF7F0FB10BD10B541
:104D700040F225512648FDF74EFBD0B1244800886B
:104D80002348001D008840F225512148FDF77AFB99
:104D900000212048FBF7DAFB1A491E48FBF74EFCBE
:104DA0004FF480611B48FBF7F2FB01211948FBF728
:104DB000CDFB10BD10B540F225511748FDF72BFB78
:104DC000E8B1154800881448001D008840F22551BC
:104DD0001148FDF757FB00210E486038FBF7B6FB82
:104DE0000E490C486038FBF729FC48210948603817
:104DF000FBF7CDFB012107486038FBF7A7FB10BD8F
:104E00008864024000080020A80800203E0000201E
:104E10000044004088600240004800400008001044
:104E200000B585B0CF200490002003900290302080
:104E30000190002000900123FB4A0F21D620FDF7AE
:104E40009FFE0A20FDF722FD012304AA2021D6207F
:104E5000FDF776FE0A20FDF719FD012303AA2121A3
:104E6000D620FDF76DFE0A20FDF710FD012302AAF2
:104E70002221D620FDF764FE0A20FDF707FD01235D
:104E800001AA2321D620FDF75BFE0A20FDF7FEFCD8
:104E900001236A462421D620FDF752FE0A20FDF7A1
:104EA000F5FC01236A462021D620FDF769FE0A2081
:104EB000FDF7ECFC05B000BD10B504460123DB4A4C
:104EC0002821D620FDF75CFE0123D84A521C292157
:104ED000D620FDF755FE0123D44A921C2A21D62064
:104EE000FDF74EFE0123D14AD21C2B21D620FDF71F
:104EF00047FE0123CD4A121D2C21D620FDF740FE8E
:104F00000123CA4A521D2D21D620FDF739FE00206B
:104F1000C74908701AE0C6480078C44911F8100063
:104F2000C4490870C2480078012101EB4000BF4924
:104F3000085CC049487008460088BD49097824F8D3
:104F40001100BB480078401CB9490870B848007887
:104F50000328E0DB10BD10B52DED028BB6480078BC
:104F600000287CD1B548FFF7A7FFB449B1F900008C
:104F70000AF033FC41EC100BB0EE408AF0EE608A90
:104F8000AF4890ED001BB0EE410AF0EE610A53EC21
:104F9000102B51EC180B0AF0E5F941EC100BA84866
:104FA00080ED000BA549B1F902000AF016FC41ECB6
:104FB000100BB0EE408AF0EE608AA14890ED021B23
:104FC000B0EE410AF0EE610A53EC102B51EC180BD5
:104FD0000AF0C8F941EC100B994880ED020B974993
:104FE000B1F904000AF0F9FB41EC100BB0EE408A75
:104FF000F0EE608A924890ED041BB0EE410AF0EEAC
:10500000610A53EC102B51EC180B0AF0ABF941EC90
:10501000100B8B4880ED040B8A480088401C89499E
:10502000088000BF864890ED001BB0EE410AF0EE0C
:10503000610A9FED851B53EC112B51EC100B0AF00C
:1050400045FA41EC100B7E4880ED000B90ED021B01
:10505000B0EE410AF0EE610A9FED7B1B00E0DEE15D
:1050600053EC112B51EC100B0AF030FA41EC100B01
:10507000734880ED020B90ED041BB0EE410AF0EE98
:10508000610A9FED711B53EC112B51EC100B0AF0D0
:105090001DFA41EC100B6A4880ED040B90ED002BDB
:1050A000B0EE420AF0EE620A694890ED002BB0EED5
:1050B000421AF0EE621A53EC102B51EC110B0AF06D
:1050C00051F941EC100B624880ED000B5C4890ED0B
:1050D000022BB0EE420AF0EE620A5D4890ED022B20
:1050E000B0EE421AF0EE621A53EC102B51EC110B99
:1050F0000AF038F941EC100B554880ED020B50488E
:1051000090ED042BB0EE420AF0EE620A504890EDAA
:10511000042BB0EE421AF0EE621A53EC102B51EC55
:10512000110B0AF01FF941EC100B494880ED040BFC
:1051300044480088012823D1414890ED000B4548A0
:1051400080ED000B3E4890ED000B434880ED000BD6
:105150003B4890ED020B3F4880ED020B384890ED44
:10516000020B3D4880ED020B354890ED040B3948A9
:1051700080ED040B324890ED040B374880ED040BB2
:10518000344890ED002BB0EE420AF0EE620A2C4853
:1051900090ED002BB0EE421AF0EE621A53EC102B99
:1051A00051EC110B0AF07EFC06D2254890ED000B65
:1051B000284880ED000B1AE0274890ED002BB0EE58
:1051C000420AF0EE620A1E4890ED002BB0EE421A41
:1051D000F0EE621A53EC102B51EC110B0AF028FB85
:1051E00005D2174890ED000B1B4880ED000B1948C5
:1051F00090ED022BB0EE420AF0EE620A104890EDFC
:10520000022BB0EE421AF0EE621A53EC102B51EC66
:10521000110B0AF047FC21D2094890ED020B0D4812
:1052200080ED020B35E000009C0000209D00002076
:10523000A3000020A4000020A600002054000020AD
:1052400088170020A8000020000000000000F03FA8
:1052500038040020A0170020B8170020994890EDCE
:10526000022BB0EE420AF0EE620A974890ED022B54
:10527000B0EE421AF0EE621A53EC102B51EC110B07
:105280000AF0D6FA05D2904890ED020B8D4880EDD9
:10529000020B8E4890ED042BB0EE420AF0EE620A4B
:1052A000894890ED042BB0EE421AF0EE621A53ECEE
:1052B000102B51EC110B0AF0F5FB06D2824890ED51
:1052C000040B824880ED040B1AE07E4890ED042B1D
:1052D000B0EE420AF0EE620A7B4890ED042BB0EE8D
:1052E000421AF0EE621A53EC102B51EC110B0AF03B
:1052F0009FFA05D2744890ED040B724880ED040BC0
:105300009FED730B704880ED000B9FED710B80EDEE
:10531000020B9FED6F0B80ED040B6F480088642833
:105320007DDB684890ED002BB0EE420AF0EE620A99
:10533000664890ED002BB0EE421AF0EE621A53EC84
:10534000102B51EC110B0AF0BBFC41EC100BB0EE32
:10535000408AF0EE608A9FED610B53EC102B51EC0C
:10536000180B0AF065FA7DD2564890ED022BB0EE8C
:10537000420AF0EE620A554890ED022BB0EE421A56
:10538000F0EE621A53EC102B51EC110B0AF098FC62
:1053900041EC100BB0EE408AF0EE608A9FED4F0BAF
:1053A00053EC102B51EC180B0AF042FA68D2454826
:1053B00090ED042BB0EE420AF0EE620A434890ED05
:1053C000042BB0EE421AF0EE621A53EC102B51ECA3
:1053D000110B0AF075FC41EC100BB0EE408AF0EEB8
:1053E000608A9FED3E0B53EC102B51EC180B0AF02A
:1053F0001FFA45D23B4890ED001BB0EE410AF0EE9B
:10540000610A9FED391B53EC112B51EC100B0AF084
:105410005DF841EC100B334880ED000B00E04CE0F0
:1054200090ED021BB0EE410AF0EE610A9FED2E1BDB
:1054300053EC112B51EC100B0AF048F841EC100B17
:10544000284880ED020B90ED041BB0EE410AF0EE0F
:10545000610A9FED251B53EC112B51EC100B0AF048
:1054600035F800E00CE041EC100B1E4880ED040B19
:1054700004211F48FBF7B0FC01201E4908701CE006
:105480000020154908809FED120B0F4880ED000B9E
:105490009FED0F0B80ED020B9FED0D0B80ED040BCC
:1054A0009FED0B0B0F4880ED000B9FED090B80ED7E
:1054B000020B9FED070B80ED040B0E480078BDEC4E
:1054C000028B10BDB817002088170020A0170020FD
:1054D0000000000000000000A80000200000000004
:1054E0000000544038040020000000000000594033
:1054F00000100240A6000020F0EE400AFE480078AE
:1055000028B9FE48C0ED000A0120FB490870FC489C
:1055100090ED000AB7EE001A31EE400AF74890ED20
:10552000001A20EE010AF64890ED001A01EE200A5A
:10553000F24880ED000A90ED000A704710B502466F
:10554000F0480078A0B90020EF4B187009E0EF4850
:10555000ED4B1B7840F82320EB480078401CEA4BC9
:105560001870E94800788842F1DB0120E54B18709B
:105570000020E74B1860481EE34B187018E0E24823
:105580000078401EE14B53F82030E048DE4C247890
:1055900040F82430DC4B1B7850F82300DC4B1B68B0
:1055A0001844DB4B1860D8480078401ED64B187062
:1055B000D54800780028E2DCD44802600068D44B6B
:1055C0001B681844D24B18601846006890FBF1F035
:1055D000D04B18601846006810BD10B5FDF77CF977
:1055E000EC20FDF722FAFDF7EEF91E20FDF71DFA7B
:1055F000FDF7E9F9FDF793F910BD10B50446002059
:10560000C549087049E0FDF767F9EC20FDF70DFA90
:10561000FDF7D9F9C0490978A02202EB4101C8B2CF
:10562000FDF703FAFDF7CFF9FDF779F9FDF754F926
:10563000ED20FDF7FAF9FDF7C6F9B7490978B74A41
:1056400002EB4100FDF71EFAFDF785F9B249097832
:10565000012202EB4101B14A8818FDF713FAFDF768
:1056600096F9FDF75CF9AC480078012101EB4000A8
:10567000AA49095CA8480078A84A12F8100041EA33
:105680000020A549097824F811000120FDF7FEF853
:10569000A1480078401CA04908709F48007808285D
:1056A000B1DB10BDF8B505460C460026FDF714F930
:1056B000EC20FDF7BAF9FDF786F92846FDF7B5F9B4
:1056C000FDF781F9FDF72BF92046FDF737F8FDF7D7
:1056D00003F9EC20FDF7A9F9FDF775F90020FDF7B6
:1056E000A4F9FDF770F9FDF71AF9FDF7F5F8ED20CB
:1056F000FDF79BF9FDF767F96846FDF7C3F9FDF77C
:105700002AF90DF10100FDF7BDF9FDF724F90DF1BE
:105710000200FDF7B7F9FDF73AF9FDF700F99DF83A
:10572000000000049DF8011000EB01209DF802101C
:1057300046183046F8BD10B5FFF74FFF0120FDF7C2
:10574000A5F87748FFF759FF0120FDF79FF810BD36
:1057500010B542F2B4315820FFF7A4FF7149086038
:105760006F4840890968A1EB002000EE100AB8EEEE
:10577000C00A6D4880ED000A6948808900EE100A71
:10578000B8EEC00A6848D0ED000A20EE200ADFED2E
:10579000670A80EE201A9FED660A31EE000A65481E
:1057A00080ED000AD0ED000A9FED631A80EE810AB9
:1057B00010BD10B540F2F6415220FFF773FF5F496C
:1057C0000860574840890968A1EB002000EE100AE4
:1057D000B8EEC00A5A4880ED000A5148808900EEB0
:1057E000100AB8EEC00A5648D0ED000A20EE200A92
:1057F000DFED4E0A80EE201A9FED4D0A31EE000AD1
:10580000BDEEC00A4F4880ED000A40F2F64142204A
:10581000FFF748FF4C4908604148008900EE100A34
:10582000B8EE400A4648D0ED000A20EE200A9FED6F
:10583000471AC0EE010A3A488088000400EE100AB8
:10584000B8EE400A30EE800A414880ED000A344844
:10585000C08800EE100AB8EE400A3948D0ED000AC0
:1058600020EE200A9FED3B1AC0EE010A2C4840882A
:10587000C00300EE100AB8EE400A30EE800A364847
:1058800080ED000A2F480068B0F5FA6F70DA2C48F6
:1058900090ED000A20EE000ADFED300A80EE201ABB
:1058A0002F4880ED001A27480068A0F5FA604043B1
:1058B00000EE100AB8EEC00A2A4880ED000A90ED0A
:1058C000000AF1EE040A20EE200AF0EE000A80EE53
:1058D000201A254880ED001A224890ED000AF1EECA
:1058E000040A20EE200AF1EE000A80EE201A1F487A
:1058F00080ED001A13483CE0AC000020B00000200E
:10590000B4000020B9000020B8000020E0170020FB
:10591000BC000020C0000020C4000020701900203E
:10592000D0170020C8000020CC0000200000004B51
:105930000000FA44D00000200000C842D40000203B
:10594000D8000020DC000020E00000200000004320
:10595000E400002000008043E80000200000004F29
:10596000EC000020F8000020F0000020F4000020EF
:105970002FE00068664988423ADA6648006800F21B
:10598000DC50404300EE100AB8EEC00A624880EDD9
:10599000000A624890ED000A5F48D0ED000AB1EEBF
:1059A0000C1A01EE200A5D4880ED000A5A4890ED7D
:1059B000000AF2EE060A20EE200AF0EE000A80EE5F
:1059C000201A574890ED000A31EE000A80ED000AD7
:1059D0000EE09FED540A544880ED000A9FED510AF5
:1059E0004E4880ED000A9FED4F0A4D4880ED000AB9
:1059F000484890ED000AB8EEC00A4B48D0ED000AC6
:105A000030EE600ABDEEC00A424880ED000A474809
:105A100090ED000A4148D0ED000A30EE600A43489C
:105A200080ED000A424890ED000A3D48D0ED000AA2
:105A300030EE600A3E4880ED000A3E4890ED000AD4
:105A4000B8EEC00A3A48D0ED000A20EE200ADFED99
:105A50003A0A80EE201A354890ED000A31EE400AED
:105A6000DFED360A80EE201A354880ED001A90ED01
:105A7000000A10BD10B52DED028BFFF79AFEDFED89
:105A8000310A80EE201AF0EE418ADFED2F0AB0EEE7
:105A9000680A08F01DFCF7EE000A30EEC00ADFEDE0
:105AA0002B0A20EE200AB0EE408AB0EE480ABDEC88
:105AB000028B10BD10B52DED048BF0EE408AFFF780
:105AC00078FEDFED200A80EE201AB0EE419ADFED7D
:105AD0001E0AB0EE490A08F0FBFBF7EE000A30EEB2
